{
  "_format": "hh-sol-artifact-1",
  "contractName": "RahatPayrollProject",
  "sourceName": "src/contracts/RahatPayrollProject.sol",
  "abi": [
    {
      "inputs": [
        {
          "internalType": "string",
          "name": "_name",
          "type": "string"
        },
        {
          "internalType": "address",
          "name": "_rahatClaim",
          "type": "address"
        },
        {
          "internalType": "address",
          "name": "_forwarder",
          "type": "address"
        }
      ],
      "stateMutability": "nonpayable",
      "type": "constructor"
    },
    {
      "inputs": [
        {
          "internalType": "address",
          "name": "target",
          "type": "address"
        }
      ],
      "name": "AddressEmptyCode",
      "type": "error"
    },
    {
      "inputs": [],
      "name": "FailedInnerCall",
      "type": "error"
    },
    {
      "anonymous": false,
      "inputs": [
        {
          "indexed": true,
          "internalType": "address",
          "name": "",
          "type": "address"
        }
      ],
      "name": "BeneficiaryAdded",
      "type": "event"
    },
    {
      "anonymous": false,
      "inputs": [
        {
          "indexed": true,
          "internalType": "address",
          "name": "",
          "type": "address"
        }
      ],
      "name": "BeneficiaryRemoved",
      "type": "event"
    },
    {
      "anonymous": false,
      "inputs": [
        {
          "indexed": true,
          "internalType": "address",
          "name": "beneficiary",
          "type": "address"
        },
        {
          "indexed": true,
          "internalType": "address",
          "name": "claimer",
          "type": "address"
        },
        {
          "indexed": true,
          "internalType": "address",
          "name": "token",
          "type": "address"
        },
        {
          "indexed": false,
          "internalType": "uint256",
          "name": "amount",
          "type": "uint256"
        }
      ],
      "name": "ClaimProcessed",
      "type": "event"
    },
    {
      "anonymous": false,
      "inputs": [
        {
          "indexed": true,
          "internalType": "address",
          "name": "claimer",
          "type": "address"
        },
        {
          "indexed": false,
          "internalType": "bool",
          "name": "approved",
          "type": "bool"
        }
      ],
      "name": "ClaimerUpdated",
      "type": "event"
    },
    {
      "anonymous": false,
      "inputs": [
        {
          "indexed": true,
          "internalType": "address",
          "name": "token",
          "type": "address"
        },
        {
          "indexed": true,
          "internalType": "address",
          "name": "beneficiary",
          "type": "address"
        },
        {
          "indexed": false,
          "internalType": "uint256",
          "name": "amount",
          "type": "uint256"
        }
      ],
      "name": "TokensAllocated",
      "type": "event"
    },
    {
      "anonymous": false,
      "inputs": [
        {
          "indexed": true,
          "internalType": "address",
          "name": "token",
          "type": "address"
        },
        {
          "indexed": true,
          "internalType": "address",
          "name": "beneficiary",
          "type": "address"
        },
        {
          "indexed": false,
          "internalType": "uint256",
          "name": "amount",
          "type": "uint256"
        }
      ],
      "name": "TokensDisbursed",
      "type": "event"
    },
    {
      "inputs": [],
      "name": "IID_RAHAT_PROJECT",
      "outputs": [
        {
          "internalType": "bytes4",
          "name": "",
          "type": "bytes4"
        }
      ],
      "stateMutability": "view",
      "type": "function"
    },
    {
      "inputs": [],
      "name": "RahatClaim",
      "outputs": [
        {
          "internalType": "contract IRahatClaim",
          "name": "",
          "type": "address"
        }
      ],
      "stateMutability": "view",
      "type": "function"
    },
    {
      "inputs": [
        {
          "internalType": "address",
          "name": "_token",
          "type": "address"
        },
        {
          "internalType": "address",
          "name": "_beneficiary",
          "type": "address"
        },
        {
          "internalType": "uint256",
          "name": "_amount",
          "type": "uint256"
        }
      ],
      "name": "allocateToken",
      "outputs": [],
      "stateMutability": "nonpayable",
      "type": "function"
    },
    {
      "inputs": [],
      "name": "beneficiaryCount",
      "outputs": [
        {
          "internalType": "uint256",
          "name": "",
          "type": "uint256"
        }
      ],
      "stateMutability": "view",
      "type": "function"
    },
    {
      "inputs": [
        {
          "internalType": "address",
          "name": "_token",
          "type": "address"
        },
        {
          "internalType": "address",
          "name": "_beneficiary",
          "type": "address"
        }
      ],
      "name": "disburseToken",
      "outputs": [],
      "stateMutability": "nonpayable",
      "type": "function"
    },
    {
      "inputs": [
        {
          "internalType": "address",
          "name": "_tokenAddress",
          "type": "address"
        }
      ],
      "name": "disburseTokenBatch",
      "outputs": [],
      "stateMutability": "nonpayable",
      "type": "function"
    },
    {
      "inputs": [
        {
          "internalType": "address",
          "name": "_vendor",
          "type": "address"
        }
      ],
      "name": "getServedBen",
      "outputs": [
        {
          "internalType": "uint256",
          "name": "",
          "type": "uint256"
        }
      ],
      "stateMutability": "view",
      "type": "function"
    },
    {
      "inputs": [
        {
          "internalType": "address",
          "name": "_address",
          "type": "address"
        }
      ],
      "name": "isBeneficiary",
      "outputs": [
        {
          "internalType": "bool",
          "name": "",
          "type": "bool"
        }
      ],
      "stateMutability": "view",
      "type": "function"
    },
    {
      "inputs": [
        {
          "internalType": "address",
          "name": "forwarder",
          "type": "address"
        }
      ],
      "name": "isTrustedForwarder",
      "outputs": [
        {
          "internalType": "bool",
          "name": "",
          "type": "bool"
        }
      ],
      "stateMutability": "view",
      "type": "function"
    },
    {
      "inputs": [
        {
          "internalType": "bytes[]",
          "name": "data",
          "type": "bytes[]"
        }
      ],
      "name": "multicall",
      "outputs": [
        {
          "internalType": "bytes[]",
          "name": "results",
          "type": "bytes[]"
        }
      ],
      "stateMutability": "nonpayable",
      "type": "function"
    },
    {
      "inputs": [],
      "name": "name",
      "outputs": [
        {
          "internalType": "string",
          "name": "",
          "type": "string"
        }
      ],
      "stateMutability": "view",
      "type": "function"
    },
    {
      "inputs": [
        {
          "internalType": "bytes4",
          "name": "interfaceId",
          "type": "bytes4"
        }
      ],
      "name": "supportsInterface",
      "outputs": [
        {
          "internalType": "bool",
          "name": "",
          "type": "bool"
        }
      ],
      "stateMutability": "view",
      "type": "function"
    },
    {
      "inputs": [
        {
          "internalType": "address",
          "name": "",
          "type": "address"
        },
        {
          "internalType": "address",
          "name": "",
          "type": "address"
        }
      ],
      "name": "tokenAllocations",
      "outputs": [
        {
          "internalType": "uint256",
          "name": "",
          "type": "uint256"
        }
      ],
      "stateMutability": "view",
      "type": "function"
    },
    {
      "inputs": [
        {
          "internalType": "address",
          "name": "",
          "type": "address"
        },
        {
          "internalType": "address",
          "name": "",
          "type": "address"
        }
      ],
      "name": "tokenClaimed",
      "outputs": [
        {
          "internalType": "uint256",
          "name": "",
          "type": "uint256"
        }
      ],
      "stateMutability": "view",
      "type": "function"
    },
    {
      "inputs": [],
      "name": "totalAllocated",
      "outputs": [
        {
          "internalType": "uint256",
          "name": "",
          "type": "uint256"
        }
      ],
      "stateMutability": "view",
      "type": "function"
    },
    {
      "inputs": [
        {
          "internalType": "address",
          "name": "_tokenAddress",
          "type": "address"
        },
        {
          "internalType": "address",
          "name": "_benAddress",
          "type": "address"
        },
        {
          "internalType": "address",
          "name": "_vendorAddress",
          "type": "address"
        },
        {
          "internalType": "uint256",
          "name": "_amount",
          "type": "uint256"
        }
      ],
      "name": "transferTokenToClaimer",
      "outputs": [],
      "stateMutability": "nonpayable",
      "type": "function"
    },
    {
      "inputs": [],
      "name": "trustedForwarder",
      "outputs": [
        {
          "internalType": "address",
          "name": "",
          "type": "address"
        }
      ],
      "stateMutability": "view",
      "type": "function"
    },
    {
      "inputs": [
        {
          "internalType": "address",
          "name": "_claimer",
          "type": "address"
        },
        {
          "internalType": "bool",
          "name": "_approved",
          "type": "bool"
        }
      ],
      "name": "updateClaimer",
      "outputs": [],
      "stateMutability": "nonpayable",
      "type": "function"
    }
  ],
  "bytecode": "0x60a06040523480156200001157600080fd5b50604051620015a3380380620015a38339810160408190526200003491620000b1565b6001600160a01b038116608052828160036200005183826200023a565b5050600780546001600160a01b0319166001600160a01b0394909416939093179092555062000306915050565b634e487b7160e01b600052604160045260246000fd5b80516001600160a01b0381168114620000ac57600080fd5b919050565b600080600060608486031215620000c757600080fd5b83516001600160401b0380821115620000df57600080fd5b818601915086601f830112620000f457600080fd5b8151818111156200010957620001096200007e565b604051601f8201601f19908116603f011681019083821181831017156200013457620001346200007e565b816040528281526020935089848487010111156200015157600080fd5b600091505b8282101562000175578482018401518183018501529083019062000156565b60008484830101528097505050506200019081870162000094565b93505050620001a26040850162000094565b90509250925092565b600181811c90821680620001c057607f821691505b602082108103620001e157634e487b7160e01b600052602260045260246000fd5b50919050565b601f8211156200023557600081815260208120601f850160051c81016020861015620002105750805b601f850160051c820191505b8181101562000231578281556001016200021c565b5050505b505050565b81516001600160401b038111156200025657620002566200007e565b6200026e81620002678454620001ab565b84620001e7565b602080601f831160018114620002a657600084156200028d5750858301515b600019600386901b1c1916600185901b17855562000231565b600085815260208120601f198616915b82811015620002d757888601518255948401946001909101908401620002b6565b5085821015620002f65787850151600019600388901b60f8161c191681555b5050505050600190811b01905550565b60805161127362000330600039600081816101cc015281816102440152610c8b01526112736000f3fe608060405234801561001057600080fd5b50600436106101165760003560e01c80637da0a877116100a2578063ac66efcf11610071578063ac66efcf146102a1578063ac9650d8146102b4578063ad736751146102d4578063b7cc20bf146102e7578063d052952b1461031257600080fd5b80637da0a877146102425780637fc5bb6d146102685780639d19b2261461027b578063aa80ada01461028e57600080fd5b80634fe21571116100e95780634fe2157114610195578063572b6c05146101bc5780635cd47b4c146101fc578063734b2a7c1461020f5780637b3657531461021757600080fd5b806301ffc9a71461011b57806306fdde031461015457806345f7f24914610169578063468b067614610180575b600080fd5b61013f610129366004610dc4565b6001600160e01b03191663cf8cc22d60e01b1490565b60405190151581526020015b60405180910390f35b61015c61033a565b60405161014b9190610e3e565b61017260025481565b60405190815260200161014b565b61019361018e366004610e6d565b6103c8565b005b6101a363cf8cc22d60e01b81565b6040516001600160e01b0319909116815260200161014b565b61013f6101ca366004610e6d565b7f00000000000000000000000000000000000000000000000000000000000000006001600160a01b0390811691161490565b61019361020a366004610e88565b610476565b61017261066c565b60075461022a906001600160a01b031681565b6040516001600160a01b03909116815260200161014b565b7f000000000000000000000000000000000000000000000000000000000000000061022a565b610172610276366004610e6d565b61067d565b61013f610289366004610e6d565b6106a4565b61019361029c366004610ee1565b6106b1565b6101936102af366004610f18565b6106fa565b6102c76102c2366004610f4b565b610848565b60405161014b9190610fc0565b6101936102e2366004611022565b6109b2565b6101726102f5366004610f18565b600160209081526000928352604080842090915290825290205481565b610172610320366004610f18565b600060208181529281526040808220909352908152205481565b600380546103479061105e565b80601f01602080910402602001604051908101604052809291908181526020018280546103739061105e565b80156103c05780601f10610395576101008083540402835291602001916103c0565b820191906000526020600020905b8154815290600101906020018083116103a357829003601f168201915b505050505081565b6040516370a0823160e01b81523060048201526000906001600160a01b038316906370a0823190602401602060405180830381865afa15801561040f573d6000803e3d6000fd5b505050506040513d601f19601f820116820180604052508101906104339190611098565b10156104735760405162461bcd60e51b815260206004820152600a6024820152696e6f2062616c616e636560b01b60448201526064015b60405180910390fd5b50565b6001600160a01b03808516600090815260208181526040808320938716835292905220548111156104dd5760405162461bcd60e51b81526020600482015260116024820152706e6f7420656e6f7567682062616c61636560781b604482015260640161046a565b6001600160a01b03808516600090815260208181526040808320938716835292905290812080548392906105129084906110c7565b90915550506001600160a01b0380851660009081526001602090815260408083209387168352929052908120805483929061054e9084906110da565b9091555061055e90508284610ad5565b60405163a9059cbb60e01b81526001600160a01b0383811660048301526024820183905285169063a9059cbb906044016020604051808303816000875af11580156105ad573d6000803e3d6000fd5b505050506040513d601f19601f820116820180604052508101906105d191906110ed565b61060f5760405162461bcd60e51b815260206004820152600f60248201526e1d1c985b9cd9995c8819985a5b1959608a1b604482015260640161046a565b836001600160a01b0316826001600160a01b0316846001600160a01b03167f74e9b2045d760af893c7ec3a670bee3bbbce2a7a75d7fee326cb022efceb030b8460405161065e91815260200190565b60405180910390a450505050565b60006106786004610b30565b905090565b6001600160a01b038116600090815260066020526040812061069e90610b30565b92915050565b600061069e600483610b3a565b816001600160a01b03167f0d4de5cd7f05b154b7f42e4f1dd68f5c27ea0edaf9bd084309201cfa52e85926826040516106ee911515815260200190565b60405180910390a25050565b6001600160a01b0380831660009081526020818152604080832093851683529290522054806107635760405162461bcd60e51b81526020600482015260156024820152744e6f20746f6b656e7320746f20646973627572736560581b604482015260640161046a565b6001600160a01b0383811660008181526020818152604080832094871680845294909152808220919091555163a9059cbb60e01b81526004810192909252602482018390529063a9059cbb906044016020604051808303816000875af11580156107d1573d6000803e3d6000fd5b505050506040513d601f19601f820116820180604052508101906107f591906110ed565b50816001600160a01b0316836001600160a01b03167fd27324da142a3bd860ef3d020a577d468178cfc1370c0f229b966865e9d7327c8360405161083b91815260200190565b60405180910390a3505050565b60606000610854610b5f565b6001600160a01b0316336001600160a01b0316146108bf5760003661087a6014826110c7565b61088592829061110a565b8080601f0160208091040260200160405190810160405280939291908181526020018383808284376000920191909152506108cf92505050565b6040805160008152602081019091525b90508267ffffffffffffffff8111156108ea576108ea611134565b60405190808252806020026020018201604052801561091d57816020015b60608152602001906001900390816109085790505b50915060005b838110156109aa5761097a308686848181106109415761094161114a565b90506020028101906109539190611160565b85604051602001610966939291906111ae565b604051602081830303815290604052610b69565b83828151811061098c5761098c61114a565b602002602001018190525080806109a2906111d5565b915050610923565b505092915050565b6001600160a01b038216610a085760405162461bcd60e51b815260206004820152601f60248201527f42656e65666963696172792063616e6e6f742062652030206164647265737300604482015260640161046a565b610a1182610bdf565b6001600160a01b038084166000908152602081815260408083209386168352929052908120546002805491929091610a4a9084906110c7565b90915550506001600160a01b03808416600090815260208181526040808320938616835292905290812082905560028054839290610a899084906110da565b92505081905550816001600160a01b0316836001600160a01b03167fb85a32c5e2abde02dc41a312129cd4ce3a0d1c426a01f420cdc4eb3fffa4ae0d8360405161083b91815260200190565b6001600160a01b0382166000908152600660205260409020610af79082610c66565b506040516001600160a01b038216907fc3e089fc6227e049d0e41c3d7a383d57efe69c1955c5752f7e5a9b5f1f11302090600090a25050565b600061069e825490565b6001600160a01b038116600090815260018301602052604081205415155b9392505050565b6000610678610c7b565b6060600080846001600160a01b031684604051610b8691906111ee565b600060405180830381855af49150503d8060008114610bc1576040519150601f19603f3d011682016040523d82523d6000602084013e610bc6565b606091505b5091509150610bd6858383610cf0565b95945050505050565b610bea600482610b3a565b610c23576040516001600160a01b038216907fc3e089fc6227e049d0e41c3d7a383d57efe69c1955c5752f7e5a9b5f1f11302090600090a25b610c2e600482610c66565b506040516001600160a01b038216907fc3e089fc6227e049d0e41c3d7a383d57efe69c1955c5752f7e5a9b5f1f11302090600090a250565b6000610b58836001600160a01b038416610d4c565b6000366014336001600160a01b037f000000000000000000000000000000000000000000000000000000000000000016148015610cb85750808210155b15610ce857600036610cca83856110c7565b610cd592829061110a565b610cde9161120a565b60601c9250505090565b339250505090565b606082610d0557610d0082610d9b565b610b58565b8151158015610d1c57506001600160a01b0384163b155b15610d4557604051639996b31560e01b81526001600160a01b038516600482015260240161046a565b5092915050565b6000818152600183016020526040812054610d935750815460018181018455600084815260208082209093018490558454848252828601909352604090209190915561069e565b50600061069e565b805115610dab5780518082602001fd5b604051630a12f52160e11b815260040160405180910390fd5b600060208284031215610dd657600080fd5b81356001600160e01b031981168114610b5857600080fd5b60005b83811015610e09578181015183820152602001610df1565b50506000910152565b60008151808452610e2a816020860160208601610dee565b601f01601f19169290920160200192915050565b602081526000610b586020830184610e12565b80356001600160a01b0381168114610e6857600080fd5b919050565b600060208284031215610e7f57600080fd5b610b5882610e51565b60008060008060808587031215610e9e57600080fd5b610ea785610e51565b9350610eb560208601610e51565b9250610ec360408601610e51565b9396929550929360600135925050565b801515811461047357600080fd5b60008060408385031215610ef457600080fd5b610efd83610e51565b91506020830135610f0d81610ed3565b809150509250929050565b60008060408385031215610f2b57600080fd5b610f3483610e51565b9150610f4260208401610e51565b90509250929050565b60008060208385031215610f5e57600080fd5b823567ffffffffffffffff80821115610f7657600080fd5b818501915085601f830112610f8a57600080fd5b813581811115610f9957600080fd5b8660208260051b8501011115610fae57600080fd5b60209290920196919550909350505050565b6000602080830181845280855180835260408601915060408160051b870101925083870160005b8281101561101557603f19888603018452611003858351610e12565b94509285019290850190600101610fe7565b5092979650505050505050565b60008060006060848603121561103757600080fd5b61104084610e51565b925061104e60208501610e51565b9150604084013590509250925092565b600181811c9082168061107257607f821691505b60208210810361109257634e487b7160e01b600052602260045260246000fd5b50919050565b6000602082840312156110aa57600080fd5b5051919050565b634e487b7160e01b600052601160045260246000fd5b8181038181111561069e5761069e6110b1565b8082018082111561069e5761069e6110b1565b6000602082840312156110ff57600080fd5b8151610b5881610ed3565b6000808585111561111a57600080fd5b8386111561112757600080fd5b5050820193919092039150565b634e487b7160e01b600052604160045260246000fd5b634e487b7160e01b600052603260045260246000fd5b6000808335601e1984360301811261117757600080fd5b83018035915067ffffffffffffffff82111561119257600080fd5b6020019150368190038213156111a757600080fd5b9250929050565b8284823760008382016000815283516111cb818360208801610dee565b0195945050505050565b6000600182016111e7576111e76110b1565b5060010190565b60008251611200818460208701610dee565b9190910192915050565b6bffffffffffffffffffffffff1981358181169160148510156109aa5760149490940360031b84901b169092169291505056fea2646970667358221220e9873e2b21b9ded4bf844f71bab3dda630c1871c1b9011b88b8bd21a85dd09df64736f6c63430008140033",
  "linkReferences": {},
  "deployedLinkReferences": {}
}