{
  "_format": "hh-sol-artifact-1",
  "contractName": "RahatTreasury",
  "sourceName": "src/contracts/RahatTreasury.sol",
  "abi": [
    {
      "inputs": [
        {
          "internalType": "address",
          "name": "_manager",
          "type": "address"
        }
      ],
      "stateMutability": "nonpayable",
      "type": "constructor"
    },
    {
      "inputs": [
        {
          "internalType": "address",
          "name": "authority",
          "type": "address"
        }
      ],
      "name": "AccessManagedInvalidAuthority",
      "type": "error"
    },
    {
      "inputs": [
        {
          "internalType": "address",
          "name": "caller",
          "type": "address"
        },
        {
          "internalType": "uint32",
          "name": "delay",
          "type": "uint32"
        }
      ],
      "name": "AccessManagedRequiredDelay",
      "type": "error"
    },
    {
      "inputs": [
        {
          "internalType": "address",
          "name": "caller",
          "type": "address"
        }
      ],
      "name": "AccessManagedUnauthorized",
      "type": "error"
    },
    {
      "anonymous": false,
      "inputs": [
        {
          "indexed": false,
          "internalType": "address",
          "name": "authority",
          "type": "address"
        }
      ],
      "name": "AuthorityUpdated",
      "type": "event"
    },
    {
      "anonymous": false,
      "inputs": [
        {
          "indexed": true,
          "internalType": "address",
          "name": "tokenAddress",
          "type": "address"
        }
      ],
      "name": "TokenCreated",
      "type": "event"
    },
    {
      "anonymous": false,
      "inputs": [
        {
          "indexed": true,
          "internalType": "address",
          "name": "tokenAddress",
          "type": "address"
        },
        {
          "indexed": true,
          "internalType": "address",
          "name": "approveAddress",
          "type": "address"
        },
        {
          "indexed": false,
          "internalType": "uint256",
          "name": "amount",
          "type": "uint256"
        }
      ],
      "name": "TokenMintedAndApproved",
      "type": "event"
    },
    {
      "anonymous": false,
      "inputs": [
        {
          "indexed": true,
          "internalType": "address",
          "name": "tokenAddress",
          "type": "address"
        },
        {
          "indexed": true,
          "internalType": "address",
          "name": "receiverAddress",
          "type": "address"
        },
        {
          "indexed": false,
          "internalType": "uint256",
          "name": "amount",
          "type": "uint256"
        }
      ],
      "name": "TokenMintedAndSent",
      "type": "event"
    },
    {
      "inputs": [],
      "name": "IID_RAHAT_TREASURY",
      "outputs": [
        {
          "internalType": "bytes4",
          "name": "",
          "type": "bytes4"
        }
      ],
      "stateMutability": "view",
      "type": "function"
    },
    {
      "inputs": [
        {
          "internalType": "address",
          "name": "_token",
          "type": "address"
        },
        {
          "internalType": "address",
          "name": "_spender",
          "type": "address"
        },
        {
          "internalType": "uint256",
          "name": "_amount",
          "type": "uint256"
        }
      ],
      "name": "approveToken",
      "outputs": [],
      "stateMutability": "nonpayable",
      "type": "function"
    },
    {
      "inputs": [],
      "name": "authority",
      "outputs": [
        {
          "internalType": "address",
          "name": "",
          "type": "address"
        }
      ],
      "stateMutability": "view",
      "type": "function"
    },
    {
      "inputs": [
        {
          "internalType": "address",
          "name": "_token",
          "type": "address"
        },
        {
          "internalType": "address",
          "name": "_from",
          "type": "address"
        },
        {
          "internalType": "uint256",
          "name": "_amount",
          "type": "uint256"
        }
      ],
      "name": "claimToken",
      "outputs": [],
      "stateMutability": "nonpayable",
      "type": "function"
    },
    {
      "inputs": [
        {
          "internalType": "string",
          "name": "_name",
          "type": "string"
        },
        {
          "internalType": "string",
          "name": "_symbol",
          "type": "string"
        },
        {
          "internalType": "string",
          "name": "_description",
          "type": "string"
        },
        {
          "internalType": "uint8",
          "name": "decimals",
          "type": "uint8"
        },
        {
          "internalType": "uint256",
          "name": "_initialSupply",
          "type": "uint256"
        },
        {
          "internalType": "address",
          "name": "_to",
          "type": "address"
        },
        {
          "internalType": "address",
          "name": "_manager",
          "type": "address"
        }
      ],
      "name": "createToken",
      "outputs": [
        {
          "internalType": "address",
          "name": "",
          "type": "address"
        }
      ],
      "stateMutability": "nonpayable",
      "type": "function"
    },
    {
      "inputs": [
        {
          "internalType": "address",
          "name": "_token",
          "type": "address"
        },
        {
          "internalType": "address",
          "name": "_from",
          "type": "address"
        }
      ],
      "name": "getAllowanceAndBalance",
      "outputs": [
        {
          "internalType": "uint256",
          "name": "allowance",
          "type": "uint256"
        },
        {
          "internalType": "uint256",
          "name": "balance",
          "type": "uint256"
        }
      ],
      "stateMutability": "view",
      "type": "function"
    },
    {
      "inputs": [],
      "name": "getTokens",
      "outputs": [
        {
          "internalType": "address[]",
          "name": "",
          "type": "address[]"
        }
      ],
      "stateMutability": "view",
      "type": "function"
    },
    {
      "inputs": [],
      "name": "isConsumingScheduledOp",
      "outputs": [
        {
          "internalType": "bytes4",
          "name": "",
          "type": "bytes4"
        }
      ],
      "stateMutability": "view",
      "type": "function"
    },
    {
      "inputs": [
        {
          "internalType": "address",
          "name": "_token",
          "type": "address"
        },
        {
          "internalType": "uint256",
          "name": "_amount",
          "type": "uint256"
        }
      ],
      "name": "mintToken",
      "outputs": [],
      "stateMutability": "nonpayable",
      "type": "function"
    },
    {
      "inputs": [
        {
          "internalType": "address",
          "name": "_token",
          "type": "address"
        },
        {
          "internalType": "address",
          "name": "_approveAddress",
          "type": "address"
        },
        {
          "internalType": "uint256",
          "name": "_amount",
          "type": "uint256"
        }
      ],
      "name": "mintTokenAndApprove",
      "outputs": [],
      "stateMutability": "nonpayable",
      "type": "function"
    },
    {
      "inputs": [
        {
          "internalType": "address",
          "name": "_token",
          "type": "address"
        },
        {
          "internalType": "address",
          "name": "_receiver",
          "type": "address"
        },
        {
          "internalType": "uint256",
          "name": "_amount",
          "type": "uint256"
        }
      ],
      "name": "mintTokenAndSend",
      "outputs": [],
      "stateMutability": "nonpayable",
      "type": "function"
    },
    {
      "inputs": [
        {
          "internalType": "address",
          "name": "newAuthority",
          "type": "address"
        }
      ],
      "name": "setAuthority",
      "outputs": [],
      "stateMutability": "nonpayable",
      "type": "function"
    },
    {
      "inputs": [
        {
          "internalType": "bytes4",
          "name": "interfaceId",
          "type": "bytes4"
        }
      ],
      "name": "supportsInterface",
      "outputs": [
        {
          "internalType": "bool",
          "name": "",
          "type": "bool"
        }
      ],
      "stateMutability": "view",
      "type": "function"
    },
    {
      "inputs": [
        {
          "internalType": "address",
          "name": "_token",
          "type": "address"
        },
        {
          "internalType": "address",
          "name": "_from",
          "type": "address"
        },
        {
          "internalType": "address",
          "name": "_to",
          "type": "address"
        },
        {
          "internalType": "uint256",
          "name": "_amount",
          "type": "uint256"
        }
      ],
      "name": "transferFromToken",
      "outputs": [],
      "stateMutability": "nonpayable",
      "type": "function"
    },
    {
      "inputs": [
        {
          "internalType": "address",
          "name": "_token",
          "type": "address"
        },
        {
          "internalType": "address",
          "name": "_to",
          "type": "address"
        },
        {
          "internalType": "uint256",
          "name": "_amount",
          "type": "uint256"
        }
      ],
      "name": "transferToken",
      "outputs": [],
      "stateMutability": "nonpayable",
      "type": "function"
    }
  ],
  "bytecode": "0x608060405234801561001057600080fd5b50604051612aed380380612aed83398101604081905261002f91610094565b8061003981610040565b50506100c4565b600080546001600160a01b0319166001600160a01b0383169081179091556040519081527f2f658b440c35314f52658ea8a740e05b284cdc84dc9ae01e891f21b8933e7cad9060200160405180910390a150565b6000602082840312156100a657600080fd5b81516001600160a01b03811681146100bd57600080fd5b9392505050565b612a1a806100d36000396000f3fe60806040523480156200001157600080fd5b5060043610620001095760003560e01c80638fb3603711620000a3578063bf7e214f116200006e578063bf7e214f1462000258578063da3e3397146200026a578063f5537ede1462000281578063fb3c0d70146200029857600080fd5b80638fb3603714620001f557806392fa450a146200021957806398051c3c1462000230578063aa6ca808146200023f57600080fd5b80634937b17411620000e45780634937b174146200018357806379c6506814620001b05780637a9e5e4b14620001c75780637f89328f14620001de57600080fd5b806301ffc9a7146200010e578063125bfb66146200013a578063353df26b1462000153575b600080fd5b620001256200011f36600462000cc6565b620002af565b60405190151581526020015b60405180910390f35b620001516200014b36600462000d0f565b620002e7565b005b6200016a6200016436600462000dfb565b6200036a565b6040516001600160a01b03909116815260200162000131565b6200019a6200019436600462000ed6565b62000404565b6040805192835260208301919091520162000131565b62000151620001c136600462000f05565b620004f3565b62000151620001d836600462000f32565b6200056c565b62000151620001ef36600462000d0f565b620005f0565b620001ff6200082d565b6040516001600160e01b0319909116815260200162000131565b620001516200022a36600462000d0f565b62000852565b620001ff63612d4d5d60e11b81565b62000249620009f9565b60405162000131919062000f50565b6000546001600160a01b03166200016a565b620001516200027b36600462000d0f565b62000abd565b620001516200029236600462000d0f565b62000af3565b62000151620002a936600462000f9f565b62000b29565b60006001600160e01b0319821663612d4d5d60e11b1480620002e157506301ffc9a760e01b6001600160e01b03198316145b92915050565b6040516323b872dd60e01b81526001600160a01b038381166004830152306024830152604482018390528416906323b872dd906064015b6020604051808303816000875af11580156200033e573d6000803e3d6000fd5b505050506040513d601f19601f8201168201806040525081019062000364919062000ff1565b50505050565b60008088888888888888604051620003829062000cb8565b6200039497969594939291906200105d565b604051809103906000f080158015620003b1573d6000803e3d6000fd5b50905080620003c260018262000bae565b506040516001600160a01b038216907f2e2b3f61b70d2d131b2a807371103cc98d51adcaa5e9a8f9c32658ad8426e74e90600090a29998505050505050505050565b604051636eb1769f60e11b81526001600160a01b038281166004830152306024830152600091829185169063dd62ed3e90604401602060405180830381865afa15801562000456573d6000803e3d6000fd5b505050506040513d601f19601f820116820180604052508101906200047c9190620010cf565b6040516370a0823160e01b81523060048201529092506001600160a01b038516906370a0823190602401602060405180830381865afa158015620004c4573d6000803e3d6000fd5b505050506040513d601f19601f82011682018060405250810190620004ea9190620010cf565b90509250929050565b6040516340c10f1960e01b8152306004820152602481018290526001600160a01b038316906340c10f19906044016020604051808303816000875af115801562000541573d6000803e3d6000fd5b505050506040513d601f19601f82011682018060405250810190620005679190620010cf565b505050565b60005433906001600160a01b03168114620005a95760405162d1953b60e31b81526001600160a01b03821660048201526024015b60405180910390fd5b816001600160a01b03163b600003620005e1576040516361798f2f60e11b81526001600160a01b0383166004820152602401620005a0565b620005ec8262000bcc565b5050565b6001600160a01b038316620006485760405162461bcd60e51b815260206004820152601c60248201527f746f6b656e20616464726573732063616e6e6f74206265207a65726f000000006044820152606401620005a0565b6001600160a01b038216620006a05760405162461bcd60e51b815260206004820152601e60248201527f617070726f766520616464726573732063616e6e6f74206265207a65726f00006044820152606401620005a0565b60008111620006ea5760405162461bcd60e51b8152602060048201526015602482015274616d6f756e742063616e6e6f74206265207a65726f60581b6044820152606401620005a0565b6040516340c10f1960e01b81523060048201526024810182905283906001600160a01b038216906340c10f19906044016020604051808303816000875af11580156200073a573d6000803e3d6000fd5b505050506040513d601f19601f82011682018060405250810190620007609190620010cf565b5060405163095ea7b360e01b81526001600160a01b0384811660048301526024820184905282169063095ea7b3906044015b6020604051808303816000875af1158015620007b2573d6000803e3d6000fd5b505050506040513d601f19601f82011682018060405250810190620007d8919062000ff1565b50826001600160a01b0316846001600160a01b03167fdc6904c4e8e3746f835eb600662c644c895c758995784a4b39c68f75355b2d27846040516200081f91815260200190565b60405180910390a350505050565b60008054600160a01b900460ff16620008465750600090565b50638fb3603760e01b90565b6001600160a01b038316620008aa5760405162461bcd60e51b815260206004820152601c60248201527f746f6b656e20616464726573732063616e6e6f74206265207a65726f000000006044820152606401620005a0565b6001600160a01b038216620009025760405162461bcd60e51b815260206004820152601e60248201527f617070726f766520616464726573732063616e6e6f74206265207a65726f00006044820152606401620005a0565b600081116200094c5760405162461bcd60e51b8152602060048201526015602482015274616d6f756e742063616e6e6f74206265207a65726f60581b6044820152606401620005a0565b6040516340c10f1960e01b81523060048201526024810182905283906001600160a01b038216906340c10f19906044016020604051808303816000875af11580156200099c573d6000803e3d6000fd5b505050506040513d601f19601f82011682018060405250810190620009c29190620010cf565b5060405163a9059cbb60e01b81526001600160a01b0384811660048301526024820184905282169063a9059cbb9060440162000792565b6060600062000a09600162000c20565b67ffffffffffffffff81111562000a245762000a2462000d50565b60405190808252806020026020018201604052801562000a4e578160200160208202803683370190505b50905060005b62000a60600162000c20565b81101562000ab75762000a7560018262000c2b565b82828151811062000a8a5762000a8a620010e9565b6001600160a01b03909216602092830291909101909101528062000aae81620010ff565b91505062000a54565b50919050565b60405163095ea7b360e01b81526001600160a01b0383811660048301526024820183905284169063095ea7b3906044016200031e565b60405163a9059cbb60e01b81526001600160a01b0383811660048301526024820183905284169063a9059cbb906044016200031e565b6040516323b872dd60e01b81526001600160a01b0384811660048301528381166024830152604482018390528516906323b872dd906064016020604051808303816000875af115801562000b81573d6000803e3d6000fd5b505050506040513d601f19601f8201168201806040525081019062000ba7919062000ff1565b5050505050565b600062000bc5836001600160a01b03841662000c39565b9392505050565b600080546001600160a01b0319166001600160a01b0383169081179091556040519081527f2f658b440c35314f52658ea8a740e05b284cdc84dc9ae01e891f21b8933e7cad9060200160405180910390a150565b6000620002e1825490565b600062000bc5838362000c8b565b600081815260018301602052604081205462000c8257508154600181810184556000848152602080822090930184905584548482528286019093526040902091909155620002e1565b506000620002e1565b600082600001828154811062000ca55762000ca5620010e9565b9060005260206000200154905092915050565b6118bd806200112883390190565b60006020828403121562000cd957600080fd5b81356001600160e01b03198116811462000bc557600080fd5b80356001600160a01b038116811462000d0a57600080fd5b919050565b60008060006060848603121562000d2557600080fd5b62000d308462000cf2565b925062000d406020850162000cf2565b9150604084013590509250925092565b634e487b7160e01b600052604160045260246000fd5b600082601f83011262000d7857600080fd5b813567ffffffffffffffff8082111562000d965762000d9662000d50565b604051601f8301601f19908116603f0116810190828211818310171562000dc15762000dc162000d50565b8160405283815286602085880101111562000ddb57600080fd5b836020870160208301376000602085830101528094505050505092915050565b600080600080600080600060e0888a03121562000e1757600080fd5b873567ffffffffffffffff8082111562000e3057600080fd5b62000e3e8b838c0162000d66565b985060208a013591508082111562000e5557600080fd5b62000e638b838c0162000d66565b975060408a013591508082111562000e7a57600080fd5b5062000e898a828b0162000d66565b955050606088013560ff8116811462000ea157600080fd5b93506080880135925062000eb860a0890162000cf2565b915062000ec860c0890162000cf2565b905092959891949750929550565b6000806040838503121562000eea57600080fd5b62000ef58362000cf2565b9150620004ea6020840162000cf2565b6000806040838503121562000f1957600080fd5b62000f248362000cf2565b946020939093013593505050565b60006020828403121562000f4557600080fd5b62000bc58262000cf2565b6020808252825182820181905260009190848201906040850190845b8181101562000f935783516001600160a01b03168352928401929184019160010162000f6c565b50909695505050505050565b6000806000806080858703121562000fb657600080fd5b62000fc18562000cf2565b935062000fd16020860162000cf2565b925062000fe16040860162000cf2565b9396929550929360600135925050565b6000602082840312156200100457600080fd5b8151801515811462000bc557600080fd5b6000815180845260005b818110156200103d576020818501810151868301820152016200101f565b506000602082860101526020601f19601f83011685010191505092915050565b60e0815260006200107260e083018a62001015565b828103602084015262001086818a62001015565b905082810360408401526200109c818962001015565b60ff979097166060840152505060808101939093526001600160a01b0391821660a08401521660c0909101529392505050565b600060208284031215620010e257600080fd5b5051919050565b634e487b7160e01b600052603260045260246000fd5b6000600182016200112057634e487b7160e01b600052601160045260246000fd5b506001019056fe608060405260326000553480156200001657600080fd5b50604051620018bd380380620018bd833981016040819052620000399162000359565b80878760066200004a8382620004c3565b506007620000598282620004c3565b5050506200006d81620000ae60201b60201c565b506008805460ff60a81b1916600160a81b60ff8716021790556009620000948682620004c3565b50620000a1828462000102565b50505050505050620005b7565b600880546001600160a01b0319166001600160a01b0383169081179091556040519081527f2f658b440c35314f52658ea8a740e05b284cdc84dc9ae01e891f21b8933e7cad9060200160405180910390a150565b6001600160a01b038216620001325760405163ec442f0560e01b8152600060048201526024015b60405180910390fd5b620001406000838362000144565b5050565b6001600160a01b038316620001735780600560008282546200016791906200058f565b90915550620001e79050565b6001600160a01b03831660009081526003602052604090205481811015620001c85760405163391434e360e21b81526001600160a01b0385166004820152602481018290526044810183905260640162000129565b6001600160a01b03841660009081526003602052604090209082900390555b6001600160a01b038216620002055760058054829003905562000224565b6001600160a01b03821660009081526003602052604090208054820190555b816001600160a01b0316836001600160a01b03167fddf252ad1be2c89b69c2b068fc378daa952ba7f163c4a11628f55a4df523b3ef836040516200026a91815260200190565b60405180910390a3505050565b634e487b7160e01b600052604160045260246000fd5b600082601f8301126200029f57600080fd5b81516001600160401b0380821115620002bc57620002bc62000277565b604051601f8301601f19908116603f01168101908282118183101715620002e757620002e762000277565b816040528381526020925086838588010111156200030457600080fd5b600091505b8382101562000328578582018301518183018401529082019062000309565b600093810190920192909252949350505050565b80516001600160a01b03811681146200035457600080fd5b919050565b600080600080600080600060e0888a0312156200037557600080fd5b87516001600160401b03808211156200038d57600080fd5b6200039b8b838c016200028d565b985060208a0151915080821115620003b257600080fd5b620003c08b838c016200028d565b975060408a0151915080821115620003d757600080fd5b50620003e68a828b016200028d565b955050606088015160ff81168114620003fe57600080fd5b608089015190945092506200041660a089016200033c565b91506200042660c089016200033c565b905092959891949750929550565b600181811c908216806200044957607f821691505b6020821081036200046a57634e487b7160e01b600052602260045260246000fd5b50919050565b601f821115620004be57600081815260208120601f850160051c81016020861015620004995750805b601f850160051c820191505b81811015620004ba57828155600101620004a5565b5050505b505050565b81516001600160401b03811115620004df57620004df62000277565b620004f781620004f0845462000434565b8462000470565b602080601f8311600181146200052f5760008415620005165750858301515b600019600386901b1c1916600185901b178555620004ba565b600085815260208120601f198616915b8281101562000560578886015182559484019460019091019084016200053f565b50858210156200057f5787850151600019600388901b60f8161c191681555b5050505050600190811b01905550565b80820180821115620005b157634e487b7160e01b600052601160045260246000fd5b92915050565b6112f680620005c76000396000f3fe608060405234801561001057600080fd5b50600436106101425760003560e01c806370a08231116100b857806395d89b411161007c57806395d89b41146102b1578063a9059cbb146102b9578063ac9650d8146102cc578063bf7e214f146102ec578063dd62ed3e14610307578063ed60c0fc1461034057600080fd5b806370a08231146102395780637284e4161461026257806379cc67901461026a5780637a9e5e4b1461027d5780638fb360371461029057600080fd5b806323b872dd1161010a57806323b872dd146101b95780632f54bf6e146101cc578063313ce567146101df57806340c10f19146101fe57806342966c68146102115780637065cb481461022657600080fd5b806306fdde0314610147578063095ea7b3146101655780630db0262214610188578063173825d91461019e57806318160ddd146101b1575b600080fd5b61014f610355565b60405161015c9190610f02565b60405180910390f35b610178610173366004610f2c565b6103e7565b604051901515815260200161015c565b610190610401565b60405190815260200161015c565b6101786101ac366004610f56565b610412565b600554610190565b6101786101c7366004610f71565b61048b565b6101786101da366004610f56565b6104b1565b600854600160a81b900460ff1660405160ff909116815260200161015c565b61019061020c366004610f2c565b6104be565b61022461021f366004610fad565b6104d0565b005b610178610234366004610f56565b6104dd565b610190610247366004610f56565b6001600160a01b031660009081526003602052604090205490565b61014f610514565b610224610278366004610f2c565b6105a2565b61022461028b366004610f56565b6105bb565b610298610631565b6040516001600160e01b0319909116815260200161015c565b61014f610657565b6101786102c7366004610f2c565b610666565b6102df6102da366004610fc6565b610674565b60405161015c919061103b565b6008546040516001600160a01b03909116815260200161015c565b61019061031536600461109d565b6001600160a01b03918216600090815260046020908152604080832093909416825291909152205490565b610348610767565b60405161015c91906110d0565b6060600680546103649061111d565b80601f01602080910402602001604051908101604052809291908181526020018280546103909061111d565b80156103dd5780601f106103b2576101008083540402835291602001916103dd565b820191906000526020600020905b8154815290600101906020018083116103c057829003601f168201915b5050505050905090565b6000336103f5818585610773565b60019150505b92915050565b600061040d6001610785565b905090565b600061041f60013361078f565b6104445760405162461bcd60e51b815260040161043b90611151565b60405180910390fd5b61044f6001836107b1565b6040519091506001600160a01b038316907f58619076adf5bb0943d100ef88d52d7c3fd691b19d3a9071b555b651fbf418da90600090a2919050565b6000336104998582856107c6565b6104a4858585610844565b60019150505b9392505050565b60006103fb60018361078f565b60006104ca83836108a3565b50919050565b6104da33826108d9565b50565b60006104ea60013361078f565b6105065760405162461bcd60e51b815260040161043b90611151565b6103fb8261090f565b919050565b600980546105219061111d565b80601f016020809104026020016040519081016040528092919081815260200182805461054d9061111d565b801561059a5780601f1061056f5761010080835404028352916020019161059a565b820191906000526020600020905b81548152906001019060200180831161057d57829003601f168201915b505050505081565b6105ad8233836107c6565b6105b782826108d9565b5050565b60085433906001600160a01b031681146105f25760405162d1953b60e31b81526001600160a01b038216600482015260240161043b565b816001600160a01b03163b600003610628576040516361798f2f60e11b81526001600160a01b038316600482015260240161043b565b6105b7826109a4565b600854600090600160a01b900460ff1661064b5750600090565b50638fb3603760e01b90565b6060600780546103649061111d565b6000336103f5818585610844565b6040805160008152602081019091526060908267ffffffffffffffff81111561069f5761069f6111c1565b6040519080825280602002602001820160405280156106d257816020015b60608152602001906001900390816106bd5790505b50915060005b8381101561075f5761072f308686848181106106f6576106f66111d7565b905060200281019061070891906111ed565b8560405160200161071b9392919061123b565b6040516020818303038152906040526109f8565b838281518110610741576107416111d7565b6020026020010181905250808061075790611262565b9150506106d8565b505092915050565b606061040d6001610a6e565b6107808383836001610a7b565b505050565b60006103fb825490565b6001600160a01b038116600090815260018301602052604081205415156104aa565b60006104aa836001600160a01b038416610b50565b6001600160a01b03838116600090815260046020908152604080832093861683529290522054600019811461083e578181101561082f57604051637dc7a0d960e11b81526001600160a01b0384166004820152602481018290526044810183905260640161043b565b61083e84848484036000610a7b565b50505050565b6001600160a01b03831661086e57604051634b637e8f60e11b81526000600482015260240161043b565b6001600160a01b0382166108985760405163ec442f0560e01b81526000600482015260240161043b565b610780838383610c43565b6001600160a01b0382166108cd5760405163ec442f0560e01b81526000600482015260240161043b565b6105b760008383610c43565b6001600160a01b03821661090357604051634b637e8f60e11b81526000600482015260240161043b565b6105b782600083610c43565b6000805461091d6001610785565b111561095d5760405162461bcd60e51b815260206004820152600f60248201526e1bdddb995c9cc8195e18d959591959608a1b604482015260640161043b565b610968600183610d6d565b6040519091506001600160a01b038316907f994a936646fe87ffe4f1e469d3d6aa417d6b855598397f323de5b449f765f0c390600090a2919050565b600880546001600160a01b0319166001600160a01b0383169081179091556040519081527f2f658b440c35314f52658ea8a740e05b284cdc84dc9ae01e891f21b8933e7cad9060200160405180910390a150565b6060600080846001600160a01b031684604051610a15919061127b565b600060405180830381855af49150503d8060008114610a50576040519150601f19603f3d011682016040523d82523d6000602084013e610a55565b606091505b5091509150610a65858383610d82565b95945050505050565b606060006104aa83610dde565b6001600160a01b038416610aa55760405163e602df0560e01b81526000600482015260240161043b565b6001600160a01b038316610acf57604051634a1406b160e11b81526000600482015260240161043b565b6001600160a01b038085166000908152600460209081526040808320938716835292905220829055801561083e57826001600160a01b0316846001600160a01b03167f8c5be1e5ebec7d5bd14f71427d1e84f3dd0314c0f7b2291e5b200ac8c7c3b92584604051610b4291815260200190565b60405180910390a350505050565b60008181526001830160205260408120548015610c39576000610b746001836111ae565b8554909150600090610b88906001906111ae565b9050808214610bed576000866000018281548110610ba857610ba86111d7565b9060005260206000200154905080876000018481548110610bcb57610bcb6111d7565b6000918252602080832090910192909255918252600188019052604090208390555b8554869080610bfe57610bfe611297565b6001900381819060005260206000200160009055905585600101600086815260200190815260200160002060009055600193505050506103fb565b60009150506103fb565b6001600160a01b038316610c6e578060056000828254610c6391906112ad565b90915550610ce09050565b6001600160a01b03831660009081526003602052604090205481811015610cc15760405163391434e360e21b81526001600160a01b0385166004820152602481018290526044810183905260640161043b565b6001600160a01b03841660009081526003602052604090209082900390555b6001600160a01b038216610cfc57600580548290039055610d1b565b6001600160a01b03821660009081526003602052604090208054820190555b816001600160a01b0316836001600160a01b03167fddf252ad1be2c89b69c2b068fc378daa952ba7f163c4a11628f55a4df523b3ef83604051610d6091815260200190565b60405180910390a3505050565b60006104aa836001600160a01b038416610e3a565b606082610d9757610d9282610e89565b6104aa565b8151158015610dae57506001600160a01b0384163b155b15610dd757604051639996b31560e01b81526001600160a01b038516600482015260240161043b565b50806104aa565b606081600001805480602002602001604051908101604052809291908181526020018280548015610e2e57602002820191906000526020600020905b815481526020019060010190808311610e1a575b50505050509050919050565b6000818152600183016020526040812054610e81575081546001818101845560008481526020808220909301849055845484825282860190935260409020919091556103fb565b5060006103fb565b805115610e995780518082602001fd5b604051630a12f52160e11b815260040160405180910390fd5b60005b83811015610ecd578181015183820152602001610eb5565b50506000910152565b60008151808452610eee816020860160208601610eb2565b601f01601f19169290920160200192915050565b6020815260006104aa6020830184610ed6565b80356001600160a01b038116811461050f57600080fd5b60008060408385031215610f3f57600080fd5b610f4883610f15565b946020939093013593505050565b600060208284031215610f6857600080fd5b6104aa82610f15565b600080600060608486031215610f8657600080fd5b610f8f84610f15565b9250610f9d60208501610f15565b9150604084013590509250925092565b600060208284031215610fbf57600080fd5b5035919050565b60008060208385031215610fd957600080fd5b823567ffffffffffffffff80821115610ff157600080fd5b818501915085601f83011261100557600080fd5b81358181111561101457600080fd5b8660208260051b850101111561102957600080fd5b60209290920196919550909350505050565b6000602080830181845280855180835260408601915060408160051b870101925083870160005b8281101561109057603f1988860301845261107e858351610ed6565b94509285019290850190600101611062565b5092979650505050505050565b600080604083850312156110b057600080fd5b6110b983610f15565b91506110c760208401610f15565b90509250929050565b6020808252825182820181905260009190848201906040850190845b818110156111115783516001600160a01b0316835292840192918401916001016110ec565b50909695505050505050565b600181811c9082168061113157607f821691505b6020821081036104ca57634e487b7160e01b600052602260045260246000fd5b60208082526027908201527f4f6e6c79206f776e65722063616e20657865637574652074686973207472616e60408201526639b0b1ba34b7b760c91b606082015260800190565b634e487b7160e01b600052601160045260246000fd5b818103818111156103fb576103fb611198565b634e487b7160e01b600052604160045260246000fd5b634e487b7160e01b600052603260045260246000fd5b6000808335601e1984360301811261120457600080fd5b83018035915067ffffffffffffffff82111561121f57600080fd5b60200191503681900382131561123457600080fd5b9250929050565b828482376000838201600081528351611258818360208801610eb2565b0195945050505050565b60006001820161127457611274611198565b5060010190565b6000825161128d818460208701610eb2565b9190910192915050565b634e487b7160e01b600052603160045260246000fd5b808201808211156103fb576103fb61119856fea2646970667358221220bc12fbd6fb4067c2bb3a12456ca891b05a3b3debda5776679c55c283455bdcea64736f6c63430008140033a2646970667358221220026ce26d862c80361276f909abed1ba2c59f3880266628621a7a808b6635575b64736f6c63430008140033",
  "linkReferences": {},
  "deployedLinkReferences": {}
}