{
  "_format": "hh-sol-artifact-1",
  "contractName": "Vendor",
  "sourceName": "src/contracts/Vendor.sol",
  "abi": [
    {
      "inputs": [
        {
          "internalType": "address",
          "name": "_rahatProject",
          "type": "address"
        },
        {
          "internalType": "address",
          "name": "_rahatClaim",
          "type": "address"
        },
        {
          "internalType": "address",
          "name": "_rahatOtp",
          "type": "address"
        },
        {
          "internalType": "address",
          "name": "_forwarder",
          "type": "address"
        },
        {
          "internalType": "address",
          "name": "_otpServerAddress",
          "type": "address"
        }
      ],
      "stateMutability": "nonpayable",
      "type": "constructor"
    },
    {
      "inputs": [
        {
          "internalType": "address",
          "name": "target",
          "type": "address"
        }
      ],
      "name": "AddressEmptyCode",
      "type": "error"
    },
    {
      "inputs": [],
      "name": "FailedInnerCall",
      "type": "error"
    },
    {
      "anonymous": false,
      "inputs": [
        {
          "indexed": true,
          "internalType": "address",
          "name": "beneficiary",
          "type": "address"
        },
        {
          "indexed": true,
          "internalType": "address",
          "name": "claimer",
          "type": "address"
        },
        {
          "indexed": true,
          "internalType": "address",
          "name": "token",
          "type": "address"
        },
        {
          "indexed": false,
          "internalType": "uint256",
          "name": "amount",
          "type": "uint256"
        }
      ],
      "name": "OfflineClaimProcessed",
      "type": "event"
    },
    {
      "anonymous": false,
      "inputs": [
        {
          "indexed": true,
          "internalType": "address",
          "name": "beneficiary",
          "type": "address"
        },
        {
          "indexed": true,
          "internalType": "address",
          "name": "claimer",
          "type": "address"
        },
        {
          "indexed": true,
          "internalType": "address",
          "name": "token",
          "type": "address"
        },
        {
          "indexed": false,
          "internalType": "uint256",
          "name": "amount",
          "type": "uint256"
        }
      ],
      "name": "OtpVerified",
      "type": "event"
    },
    {
      "inputs": [],
      "name": "RahatClaim",
      "outputs": [
        {
          "internalType": "contract IRahatClaim",
          "name": "",
          "type": "address"
        }
      ],
      "stateMutability": "view",
      "type": "function"
    },
    {
      "inputs": [],
      "name": "RahatOtp",
      "outputs": [
        {
          "internalType": "contract IRahatOtp",
          "name": "",
          "type": "address"
        }
      ],
      "stateMutability": "view",
      "type": "function"
    },
    {
      "inputs": [],
      "name": "RahatProject",
      "outputs": [
        {
          "internalType": "contract IRahatProject",
          "name": "",
          "type": "address"
        }
      ],
      "stateMutability": "view",
      "type": "function"
    },
    {
      "inputs": [
        {
          "internalType": "address",
          "name": "_benAddress",
          "type": "address"
        },
        {
          "internalType": "address",
          "name": "_tokenAddress",
          "type": "address"
        },
        {
          "internalType": "address",
          "name": "_vendorAddress",
          "type": "address"
        },
        {
          "internalType": "uint256",
          "name": "_amount",
          "type": "uint256"
        },
        {
          "internalType": "bytes32",
          "name": "_otpHash",
          "type": "bytes32"
        }
      ],
      "name": "addOfflineOtp",
      "outputs": [],
      "stateMutability": "nonpayable",
      "type": "function"
    },
    {
      "inputs": [
        {
          "internalType": "address",
          "name": "_benAddress",
          "type": "address"
        },
        {
          "internalType": "address",
          "name": "_tokenAddress",
          "type": "address"
        },
        {
          "internalType": "uint256",
          "name": "_amount",
          "type": "uint256"
        },
        {
          "internalType": "bytes32",
          "name": "_otpHash",
          "type": "bytes32"
        }
      ],
      "name": "addOtp",
      "outputs": [],
      "stateMutability": "nonpayable",
      "type": "function"
    },
    {
      "inputs": [
        {
          "internalType": "address",
          "name": "forwarder",
          "type": "address"
        }
      ],
      "name": "isTrustedForwarder",
      "outputs": [
        {
          "internalType": "bool",
          "name": "",
          "type": "bool"
        }
      ],
      "stateMutability": "view",
      "type": "function"
    },
    {
      "inputs": [
        {
          "internalType": "bytes[]",
          "name": "data",
          "type": "bytes[]"
        }
      ],
      "name": "multicall",
      "outputs": [
        {
          "internalType": "bytes[]",
          "name": "results",
          "type": "bytes[]"
        }
      ],
      "stateMutability": "nonpayable",
      "type": "function"
    },
    {
      "inputs": [],
      "name": "otpServerAddress",
      "outputs": [
        {
          "internalType": "address",
          "name": "",
          "type": "address"
        }
      ],
      "stateMutability": "view",
      "type": "function"
    },
    {
      "inputs": [
        {
          "internalType": "address",
          "name": "_benAddress",
          "type": "address"
        },
        {
          "internalType": "string",
          "name": "_otp",
          "type": "string"
        }
      ],
      "name": "processTokenRequest",
      "outputs": [],
      "stateMutability": "nonpayable",
      "type": "function"
    },
    {
      "inputs": [
        {
          "internalType": "address",
          "name": "_tokenAddress",
          "type": "address"
        },
        {
          "internalType": "address",
          "name": "_benAddress",
          "type": "address"
        },
        {
          "internalType": "uint256",
          "name": "_amount",
          "type": "uint256"
        }
      ],
      "name": "requestTokenFromBeneficiary",
      "outputs": [
        {
          "internalType": "uint256",
          "name": "requestId",
          "type": "uint256"
        }
      ],
      "stateMutability": "nonpayable",
      "type": "function"
    },
    {
      "inputs": [
        {
          "internalType": "address",
          "name": "",
          "type": "address"
        },
        {
          "internalType": "address",
          "name": "",
          "type": "address"
        }
      ],
      "name": "tokenRequestIds",
      "outputs": [
        {
          "internalType": "uint256",
          "name": "",
          "type": "uint256"
        }
      ],
      "stateMutability": "view",
      "type": "function"
    },
    {
      "inputs": [],
      "name": "trustedForwarder",
      "outputs": [
        {
          "internalType": "address",
          "name": "",
          "type": "address"
        }
      ],
      "stateMutability": "view",
      "type": "function"
    },
    {
      "inputs": [
        {
          "internalType": "address",
          "name": "_benAddress",
          "type": "address"
        },
        {
          "internalType": "address",
          "name": "_tokenAddress",
          "type": "address"
        },
        {
          "internalType": "string",
          "name": "_otp",
          "type": "string"
        },
        {
          "internalType": "uint256",
          "name": "_amount",
          "type": "uint256"
        }
      ],
      "name": "verifyOfflineTransaction",
      "outputs": [],
      "stateMutability": "nonpayable",
      "type": "function"
    },
    {
      "inputs": [
        {
          "internalType": "address",
          "name": "_benAddress",
          "type": "address"
        },
        {
          "internalType": "address",
          "name": "_tokenAddress",
          "type": "address"
        },
        {
          "internalType": "string",
          "name": "_otp",
          "type": "string"
        },
        {
          "internalType": "uint256",
          "name": "_amount",
          "type": "uint256"
        }
      ],
      "name": "verifyOtp",
      "outputs": [],
      "stateMutability": "nonpayable",
      "type": "function"
    }
  ],
  "bytecode": "0x60a06040523480156200001157600080fd5b5060405162001871380380620018718339810160408190526200003491620000aa565b6001600160a01b03918216608052600280546001600160a01b031990811696841696909617905560018054861694831694909417909355600380548516928216929092179091556000805490931691161790556200011a565b80516001600160a01b0381168114620000a557600080fd5b919050565b600080600080600060a08688031215620000c357600080fd5b620000ce866200008d565b9450620000de602087016200008d565b9350620000ee604087016200008d565b9250620000fe606087016200008d565b91506200010e608087016200008d565b90509295509295909350565b60805161172d62000144600039600081816101a20152818161020a0152610ee9015261172d6000f3fe608060405234801561001057600080fd5b50600436106100e95760003560e01c80637b3657531161008c57806396653a831161006657806396653a8314610241578063ac9650d814610254578063c83df0a014610274578063f83be7021461028757600080fd5b80637b365753146101f55780637da0a87714610208578063874d73a21461022e57600080fd5b80632dd40d8d116100c85780632dd40d8d1461016c5780634a8d07e01461017f578063572b6c05146101925780636c9aad26146101e257600080fd5b8062d008c6146100ee578063089d6e2f1461012c5780632adc6f3514610141575b600080fd5b6101196100fc366004610fee565b600460209081526000928352604080842090915290825290205481565b6040519081526020015b60405180910390f35b61013f61013a366004611027565b61029a565b005b600054610154906001600160a01b031681565b6040516001600160a01b039091168152602001610123565b61011961017a36600461106d565b6103b9565b61013f61018d36600461117b565b61065d565b6101d26101a03660046111cb565b7f00000000000000000000000000000000000000000000000000000000000000006001600160a01b0390811691161490565b6040519015158152602001610123565b600254610154906001600160a01b031681565b600154610154906001600160a01b031681565b7f0000000000000000000000000000000000000000000000000000000000000000610154565b61013f61023c3660046111e8565b6107a1565b600354610154906001600160a01b031681565b610267610262366004611243565b6108b9565b6040516101239190611308565b61013f61028236600461136a565b610a24565b61013f61029536600461136a565b610c3f565b60025460405163d052952b60e01b81526001600160a01b03858116600483015286811660248301528492169063d052952b90604401602060405180830381865afa1580156102ec573d6000803e3d6000fd5b505050506040513d601f19601f8201168201806040525081019061031091906113d4565b10156103375760405162461bcd60e51b815260040161032e906113ed565b60405180910390fd5b60035460405163344878e360e01b81526001600160a01b03868116600483015285811660248301526000604483015260648201859052608482018490529091169063344878e39060a401600060405180830381600087803b15801561039b57600080fd5b505af11580156103af573d6000803e3d6000fd5b5050505050505050565b600080546001600160a01b03166104075760405162461bcd60e51b815260206004820152601260248201527134b73b30b634b21037ba3816b9b2b93b32b960711b604482015260640161032e565b60025460405163d052952b60e01b81526001600160a01b03868116600483015285811660248301528492169063d052952b90604401602060405180830381865afa158015610459573d6000803e3d6000fd5b505050506040513d601f19601f8201168201806040525081019061047d91906113d4565b101561049b5760405162461bcd60e51b815260040161032e906113ed565b600354604051639eea65fb60e01b81526001600160a01b0385811660048301526000921690639eea65fb90602401602060405180830381865afa1580156104e6573d6000803e3d6000fd5b505050506040513d601f19601f8201168201806040525081019061050a919061142e565b9050801561055a5760405162461bcd60e51b815260206004820152601e60248201527f4f66666c696e65207472616e73616374696f6e2069732070656e64696e670000604482015260640161032e565b6001546001600160a01b03166323fe50a3610573610e54565b60005460405160e084901b6001600160e01b03191681526001600160a01b0392831660048201528289166024820152908216604482015290881660648201526084810186905260a4016020604051808303816000875af11580156105db573d6000803e3d6000fd5b505050506040513d601f19601f820116820180604052508101906105ff91906113d4565b9150816004600061060e610e54565b6001600160a01b03166001600160a01b031681526020019081526020016000206000866001600160a01b03166001600160a01b0316815260200190815260200160002081905550509392505050565b6001546000906001600160a01b0316630a5eccd360048361067c610e54565b6001600160a01b03166001600160a01b031681526020019081526020016000206000866001600160a01b03166001600160a01b0316815260200190815260200160002054846040518363ffffffff1660e01b81526004016106de929190611449565b610120604051808303816000875af11580156106fe573d6000803e3d6000fd5b505050506040513d601f19601f820116820180604052508101906107229190611475565b6002546080820151604080840151602085015160a086015192516317351ed360e21b81529596506001600160a01b0390941694635cd47b4c9461076a94939091600401611516565b600060405180830381600087803b15801561078457600080fd5b505af1158015610798573d6000803e3d6000fd5b50505050505050565b60025460405163d052952b60e01b81526001600160a01b03868116600483015287811660248301528492169063d052952b90604401602060405180830381865afa1580156107f3573d6000803e3d6000fd5b505050506040513d601f19601f8201168201806040525081019061081791906113d4565b10156108355760405162461bcd60e51b815260040161032e906113ed565b60035460405163344878e360e01b81526001600160a01b0387811660048301528681166024830152858116604483015260648201859052608482018490529091169063344878e39060a401600060405180830381600087803b15801561089a57600080fd5b505af11580156108ae573d6000803e3d6000fd5b505050505050505050565b606060006108c5610e54565b6001600160a01b0316336001600160a01b031614610930576000366108eb601482611556565b6108f6928290611569565b8080601f01602080910402602001604051908101604052809392919081815260200183838082843760009201919091525061094092505050565b6040805160008152602081019091525b90508267ffffffffffffffff81111561095b5761095b6110ae565b60405190808252806020026020018201604052801561098e57816020015b60608152602001906001900390816109795790505b50915060005b83811015610a1b576109eb308686848181106109b2576109b2611593565b90506020028101906109c491906115a9565b856040516020016109d7939291906115f7565b604051602081830303815290604052610e63565b8382815181106109fd576109fd611593565b60200260200101819052508080610a139061161e565b915050610994565b50505b92915050565b60025460405163d052952b60e01b81526001600160a01b03858116600483015286811660248301528392169063d052952b90604401602060405180830381865afa158015610a76573d6000803e3d6000fd5b505050506040513d601f19601f82011682018060405250810190610a9a91906113d4565b1015610ab85760405162461bcd60e51b815260040161032e906113ed565b60035460405163477ad4f360e01b81526000916001600160a01b03169063477ad4f390610aed90889087908790600401611637565b6020604051808303816000875af1158015610b0c573d6000803e3d6000fd5b505050506040513d601f19601f82011682018060405250810190610b30919061142e565b905080610b6d5760405162461bcd60e51b815260206004820152600b60248201526a0696e76616c6964206f74760ac1b604482015260640161032e565b6002546001600160a01b0316635cd47b4c8587610b88610e54565b866040518563ffffffff1660e01b8152600401610ba89493929190611516565b600060405180830381600087803b158015610bc257600080fd5b505af1158015610bd6573d6000803e3d6000fd5b50505050836001600160a01b0316610bec610e54565b6001600160a01b0316866001600160a01b03167fa7795fa41283c8c8b92c7aaba87e99abaf098b9732c2301e2fb9bec546ceb99585604051610c3091815260200190565b60405180910390a45050505050565b60025460405163d052952b60e01b81526001600160a01b03858116600483015286811660248301528392169063d052952b90604401602060405180830381865afa158015610c91573d6000803e3d6000fd5b505050506040513d601f19601f82011682018060405250810190610cb591906113d4565b1015610cd35760405162461bcd60e51b815260040161032e906113ed565b6003546000906001600160a01b031663f122be7c86610cf0610e54565b86866040518563ffffffff1660e01b8152600401610d11949392919061166b565b6020604051808303816000875af1158015610d30573d6000803e3d6000fd5b505050506040513d601f19601f82011682018060405250810190610d54919061142e565b905080610d915760405162461bcd60e51b815260206004820152600b60248201526a0696e76616c6964206f74760ac1b604482015260640161032e565b6002546001600160a01b0316635cd47b4c8587610dac610e54565b866040518563ffffffff1660e01b8152600401610dcc9493929190611516565b600060405180830381600087803b158015610de657600080fd5b505af1158015610dfa573d6000803e3d6000fd5b50505050836001600160a01b0316610e10610e54565b6001600160a01b0316866001600160a01b03167f011d0897ee9c776e13a570fb16d2c808b31799b9f23fd8e25605a846c174f2d085604051610c3091815260200190565b6000610e5e610ed9565b905090565b6060600080846001600160a01b031684604051610e8091906116a8565b600060405180830381855af49150503d8060008114610ebb576040519150601f19603f3d011682016040523d82523d6000602084013e610ec0565b606091505b5091509150610ed0858383610f4e565b95945050505050565b6000366014336001600160a01b037f000000000000000000000000000000000000000000000000000000000000000016148015610f165750808210155b15610f4657600036610f288385611556565b610f33928290611569565b610f3c916116c4565b60601c9250505090565b339250505090565b606082610f6357610f5e82610fad565b610fa6565b8151158015610f7a57506001600160a01b0384163b155b15610fa357604051639996b31560e01b81526001600160a01b038516600482015260240161032e565b50805b9392505050565b805115610fbd5780518082602001fd5b604051630a12f52160e11b815260040160405180910390fd5b50565b6001600160a01b0381168114610fd657600080fd5b6000806040838503121561100157600080fd5b823561100c81610fd9565b9150602083013561101c81610fd9565b809150509250929050565b6000806000806080858703121561103d57600080fd5b843561104881610fd9565b9350602085013561105881610fd9565b93969395505050506040820135916060013590565b60008060006060848603121561108257600080fd5b833561108d81610fd9565b9250602084013561109d81610fd9565b929592945050506040919091013590565b634e487b7160e01b600052604160045260246000fd5b604051610120810167ffffffffffffffff811182821017156110e8576110e86110ae565b60405290565b600082601f8301126110ff57600080fd5b813567ffffffffffffffff8082111561111a5761111a6110ae565b604051601f8301601f19908116603f01168101908282118183101715611142576111426110ae565b8160405283815286602085880101111561115b57600080fd5b836020870160208301376000602085830101528094505050505092915050565b6000806040838503121561118e57600080fd5b823561119981610fd9565b9150602083013567ffffffffffffffff8111156111b557600080fd5b6111c1858286016110ee565b9150509250929050565b6000602082840312156111dd57600080fd5b8135610fa681610fd9565b600080600080600060a0868803121561120057600080fd5b853561120b81610fd9565b9450602086013561121b81610fd9565b9350604086013561122b81610fd9565b94979396509394606081013594506080013592915050565b6000806020838503121561125657600080fd5b823567ffffffffffffffff8082111561126e57600080fd5b818501915085601f83011261128257600080fd5b81358181111561129157600080fd5b8660208260051b85010111156112a657600080fd5b60209290920196919550909350505050565b60005b838110156112d35781810151838201526020016112bb565b50506000910152565b600081518084526112f48160208601602086016112b8565b601f01601f19169290920160200192915050565b6000602080830181845280855180835260408601915060408160051b870101925083870160005b8281101561135d57603f1988860301845261134b8583516112dc565b9450928501929085019060010161132f565b5092979650505050505050565b6000806000806080858703121561138057600080fd5b843561138b81610fd9565b9350602085013561139b81610fd9565b9250604085013567ffffffffffffffff8111156113b757600080fd5b6113c3878288016110ee565b949793965093946060013593505050565b6000602082840312156113e657600080fd5b5051919050565b6020808252601290820152716e6f7420656e6f7567682062616c616e636560701b604082015260600190565b8051801515811461142957600080fd5b919050565b60006020828403121561144057600080fd5b610fa682611419565b82815260406020820152600061146260408301846112dc565b949350505050565b805161142981610fd9565b6000610120828403121561148857600080fd5b6114906110c4565b6114998361146a565b81526114a76020840161146a565b60208201526114b86040840161146a565b60408201526114c96060840161146a565b60608201526114da6080840161146a565b608082015260a083015160a082015260c083015160c082015260e083015160e082015261010061150b818501611419565b908201529392505050565b6001600160a01b039485168152928416602084015292166040820152606081019190915260800190565b634e487b7160e01b600052601160045260246000fd5b81810381811115610a1e57610a1e611540565b6000808585111561157957600080fd5b8386111561158657600080fd5b5050820193919092039150565b634e487b7160e01b600052603260045260246000fd5b6000808335601e198436030181126115c057600080fd5b83018035915067ffffffffffffffff8211156115db57600080fd5b6020019150368190038213156115f057600080fd5b9250929050565b8284823760008382016000815283516116148183602088016112b8565b0195945050505050565b60006001820161163057611630611540565b5060010190565b6001600160a01b038416815260606020820181905260009061165b908301856112dc565b9050826040830152949350505050565b6001600160a01b03858116825284166020820152608060408201819052600090611697908301856112dc565b905082606083015295945050505050565b600082516116ba8184602087016112b8565b9190910192915050565b6bffffffffffffffffffffffff198135818116916014851015610a1b5760149490940360031b84901b169092169291505056fea2646970667358221220ad68b1601d9c8f9bb6cd56c00fbb3185291afd1f8c2f6bd0469f97aafff3e58364736f6c63430008140033",
  "linkReferences": {},
  "deployedLinkReferences": {}
}