{
  "_format": "hh-sol-artifact-1",
  "contractName": "RahatToken",
  "sourceName": "src/contracts/RahatToken.sol",
  "abi": [
    {
      "inputs": [
        {
          "internalType": "string",
          "name": "_name",
          "type": "string"
        },
        {
          "internalType": "string",
          "name": "_symbol",
          "type": "string"
        },
        {
          "internalType": "string",
          "name": "_description",
          "type": "string"
        },
        {
          "internalType": "uint8",
          "name": "_decimals",
          "type": "uint8"
        },
        {
          "internalType": "uint256",
          "name": "_initialSupply",
          "type": "uint256"
        },
        {
          "internalType": "address",
          "name": "_to",
          "type": "address"
        },
        {
          "internalType": "address",
          "name": "_manager",
          "type": "address"
        },
        {
          "internalType": "address",
          "name": "_forwarder",
          "type": "address"
        }
      ],
      "stateMutability": "nonpayable",
      "type": "constructor"
    },
    {
      "inputs": [
        {
          "internalType": "address",
          "name": "authority",
          "type": "address"
        }
      ],
      "name": "AccessManagedInvalidAuthority",
      "type": "error"
    },
    {
      "inputs": [
        {
          "internalType": "address",
          "name": "caller",
          "type": "address"
        },
        {
          "internalType": "uint32",
          "name": "delay",
          "type": "uint32"
        }
      ],
      "name": "AccessManagedRequiredDelay",
      "type": "error"
    },
    {
      "inputs": [
        {
          "internalType": "address",
          "name": "caller",
          "type": "address"
        }
      ],
      "name": "AccessManagedUnauthorized",
      "type": "error"
    },
    {
      "inputs": [
        {
          "internalType": "address",
          "name": "target",
          "type": "address"
        }
      ],
      "name": "AddressEmptyCode",
      "type": "error"
    },
    {
      "inputs": [
        {
          "internalType": "address",
          "name": "spender",
          "type": "address"
        },
        {
          "internalType": "uint256",
          "name": "allowance",
          "type": "uint256"
        },
        {
          "internalType": "uint256",
          "name": "needed",
          "type": "uint256"
        }
      ],
      "name": "ERC20InsufficientAllowance",
      "type": "error"
    },
    {
      "inputs": [
        {
          "internalType": "address",
          "name": "sender",
          "type": "address"
        },
        {
          "internalType": "uint256",
          "name": "balance",
          "type": "uint256"
        },
        {
          "internalType": "uint256",
          "name": "needed",
          "type": "uint256"
        }
      ],
      "name": "ERC20InsufficientBalance",
      "type": "error"
    },
    {
      "inputs": [
        {
          "internalType": "address",
          "name": "approver",
          "type": "address"
        }
      ],
      "name": "ERC20InvalidApprover",
      "type": "error"
    },
    {
      "inputs": [
        {
          "internalType": "address",
          "name": "receiver",
          "type": "address"
        }
      ],
      "name": "ERC20InvalidReceiver",
      "type": "error"
    },
    {
      "inputs": [
        {
          "internalType": "address",
          "name": "sender",
          "type": "address"
        }
      ],
      "name": "ERC20InvalidSender",
      "type": "error"
    },
    {
      "inputs": [
        {
          "internalType": "address",
          "name": "spender",
          "type": "address"
        }
      ],
      "name": "ERC20InvalidSpender",
      "type": "error"
    },
    {
      "inputs": [],
      "name": "FailedInnerCall",
      "type": "error"
    },
    {
      "anonymous": false,
      "inputs": [
        {
          "indexed": true,
          "internalType": "address",
          "name": "owner",
          "type": "address"
        },
        {
          "indexed": true,
          "internalType": "address",
          "name": "spender",
          "type": "address"
        },
        {
          "indexed": false,
          "internalType": "uint256",
          "name": "value",
          "type": "uint256"
        }
      ],
      "name": "Approval",
      "type": "event"
    },
    {
      "anonymous": false,
      "inputs": [
        {
          "indexed": false,
          "internalType": "address",
          "name": "authority",
          "type": "address"
        }
      ],
      "name": "AuthorityUpdated",
      "type": "event"
    },
    {
      "anonymous": false,
      "inputs": [
        {
          "indexed": true,
          "internalType": "address",
          "name": "",
          "type": "address"
        }
      ],
      "name": "OwnerAdded",
      "type": "event"
    },
    {
      "anonymous": false,
      "inputs": [
        {
          "indexed": true,
          "internalType": "address",
          "name": "",
          "type": "address"
        }
      ],
      "name": "OwnerRemoved",
      "type": "event"
    },
    {
      "anonymous": false,
      "inputs": [
        {
          "indexed": true,
          "internalType": "address",
          "name": "from",
          "type": "address"
        },
        {
          "indexed": true,
          "internalType": "address",
          "name": "to",
          "type": "address"
        },
        {
          "indexed": false,
          "internalType": "uint256",
          "name": "value",
          "type": "uint256"
        }
      ],
      "name": "Transfer",
      "type": "event"
    },
    {
      "inputs": [
        {
          "internalType": "address",
          "name": "_address",
          "type": "address"
        }
      ],
      "name": "addOwner",
      "outputs": [
        {
          "internalType": "bool",
          "name": "success",
          "type": "bool"
        }
      ],
      "stateMutability": "nonpayable",
      "type": "function"
    },
    {
      "inputs": [
        {
          "internalType": "address",
          "name": "owner",
          "type": "address"
        },
        {
          "internalType": "address",
          "name": "spender",
          "type": "address"
        }
      ],
      "name": "allowance",
      "outputs": [
        {
          "internalType": "uint256",
          "name": "",
          "type": "uint256"
        }
      ],
      "stateMutability": "view",
      "type": "function"
    },
    {
      "inputs": [
        {
          "internalType": "address",
          "name": "spender",
          "type": "address"
        },
        {
          "internalType": "uint256",
          "name": "value",
          "type": "uint256"
        }
      ],
      "name": "approve",
      "outputs": [
        {
          "internalType": "bool",
          "name": "",
          "type": "bool"
        }
      ],
      "stateMutability": "nonpayable",
      "type": "function"
    },
    {
      "inputs": [],
      "name": "authority",
      "outputs": [
        {
          "internalType": "address",
          "name": "",
          "type": "address"
        }
      ],
      "stateMutability": "view",
      "type": "function"
    },
    {
      "inputs": [
        {
          "internalType": "address",
          "name": "account",
          "type": "address"
        }
      ],
      "name": "balanceOf",
      "outputs": [
        {
          "internalType": "uint256",
          "name": "",
          "type": "uint256"
        }
      ],
      "stateMutability": "view",
      "type": "function"
    },
    {
      "inputs": [
        {
          "internalType": "uint256",
          "name": "value",
          "type": "uint256"
        }
      ],
      "name": "burn",
      "outputs": [],
      "stateMutability": "nonpayable",
      "type": "function"
    },
    {
      "inputs": [
        {
          "internalType": "address",
          "name": "account",
          "type": "address"
        },
        {
          "internalType": "uint256",
          "name": "value",
          "type": "uint256"
        }
      ],
      "name": "burnFrom",
      "outputs": [],
      "stateMutability": "nonpayable",
      "type": "function"
    },
    {
      "inputs": [],
      "name": "decimals",
      "outputs": [
        {
          "internalType": "uint8",
          "name": "",
          "type": "uint8"
        }
      ],
      "stateMutability": "view",
      "type": "function"
    },
    {
      "inputs": [],
      "name": "description",
      "outputs": [
        {
          "internalType": "string",
          "name": "",
          "type": "string"
        }
      ],
      "stateMutability": "view",
      "type": "function"
    },
    {
      "inputs": [],
      "name": "isConsumingScheduledOp",
      "outputs": [
        {
          "internalType": "bytes4",
          "name": "",
          "type": "bytes4"
        }
      ],
      "stateMutability": "view",
      "type": "function"
    },
    {
      "inputs": [
        {
          "internalType": "address",
          "name": "_address",
          "type": "address"
        }
      ],
      "name": "isOwner",
      "outputs": [
        {
          "internalType": "bool",
          "name": "",
          "type": "bool"
        }
      ],
      "stateMutability": "view",
      "type": "function"
    },
    {
      "inputs": [
        {
          "internalType": "address",
          "name": "forwarder",
          "type": "address"
        }
      ],
      "name": "isTrustedForwarder",
      "outputs": [
        {
          "internalType": "bool",
          "name": "",
          "type": "bool"
        }
      ],
      "stateMutability": "view",
      "type": "function"
    },
    {
      "inputs": [],
      "name": "listOwners",
      "outputs": [
        {
          "internalType": "address[]",
          "name": "",
          "type": "address[]"
        }
      ],
      "stateMutability": "view",
      "type": "function"
    },
    {
      "inputs": [
        {
          "internalType": "address",
          "name": "_address",
          "type": "address"
        },
        {
          "internalType": "uint256",
          "name": "_amount",
          "type": "uint256"
        }
      ],
      "name": "mint",
      "outputs": [
        {
          "internalType": "uint256",
          "name": "",
          "type": "uint256"
        }
      ],
      "stateMutability": "nonpayable",
      "type": "function"
    },
    {
      "inputs": [
        {
          "internalType": "bytes[]",
          "name": "data",
          "type": "bytes[]"
        }
      ],
      "name": "multicall",
      "outputs": [
        {
          "internalType": "bytes[]",
          "name": "results",
          "type": "bytes[]"
        }
      ],
      "stateMutability": "nonpayable",
      "type": "function"
    },
    {
      "inputs": [],
      "name": "name",
      "outputs": [
        {
          "internalType": "string",
          "name": "",
          "type": "string"
        }
      ],
      "stateMutability": "view",
      "type": "function"
    },
    {
      "inputs": [],
      "name": "ownerCount",
      "outputs": [
        {
          "internalType": "uint256",
          "name": "",
          "type": "uint256"
        }
      ],
      "stateMutability": "view",
      "type": "function"
    },
    {
      "inputs": [
        {
          "internalType": "address",
          "name": "_address",
          "type": "address"
        }
      ],
      "name": "removeOwner",
      "outputs": [
        {
          "internalType": "bool",
          "name": "success",
          "type": "bool"
        }
      ],
      "stateMutability": "nonpayable",
      "type": "function"
    },
    {
      "inputs": [
        {
          "internalType": "address",
          "name": "newAuthority",
          "type": "address"
        }
      ],
      "name": "setAuthority",
      "outputs": [],
      "stateMutability": "nonpayable",
      "type": "function"
    },
    {
      "inputs": [],
      "name": "symbol",
      "outputs": [
        {
          "internalType": "string",
          "name": "",
          "type": "string"
        }
      ],
      "stateMutability": "view",
      "type": "function"
    },
    {
      "inputs": [],
      "name": "totalSupply",
      "outputs": [
        {
          "internalType": "uint256",
          "name": "",
          "type": "uint256"
        }
      ],
      "stateMutability": "view",
      "type": "function"
    },
    {
      "inputs": [
        {
          "internalType": "address",
          "name": "to",
          "type": "address"
        },
        {
          "internalType": "uint256",
          "name": "value",
          "type": "uint256"
        }
      ],
      "name": "transfer",
      "outputs": [
        {
          "internalType": "bool",
          "name": "",
          "type": "bool"
        }
      ],
      "stateMutability": "nonpayable",
      "type": "function"
    },
    {
      "inputs": [
        {
          "internalType": "address",
          "name": "from",
          "type": "address"
        },
        {
          "internalType": "address",
          "name": "to",
          "type": "address"
        },
        {
          "internalType": "uint256",
          "name": "value",
          "type": "uint256"
        }
      ],
      "name": "transferFrom",
      "outputs": [
        {
          "internalType": "bool",
          "name": "",
          "type": "bool"
        }
      ],
      "stateMutability": "nonpayable",
      "type": "function"
    },
    {
      "inputs": [],
      "name": "trustedForwarder",
      "outputs": [
        {
          "internalType": "address",
          "name": "",
          "type": "address"
        }
      ],
      "stateMutability": "view",
      "type": "function"
    }
  ],
  "bytecode": "0x60a060405260326000553480156200001657600080fd5b5060405162001b2938038062001b29833981016040819052620000399162000379565b8082898960066200004b8382620004ee565b5060076200005a8282620004ee565b5050506200006e81620000bc60201b60201c565b506001600160a01b03166080526008805460ff60a81b1916600160a81b60ff8816021790556009620000a18782620004ee565b50620000ae838562000110565b5050505050505050620005e2565b600880546001600160a01b0319166001600160a01b0383169081179091556040519081527f2f658b440c35314f52658ea8a740e05b284cdc84dc9ae01e891f21b8933e7cad9060200160405180910390a150565b6001600160a01b038216620001405760405163ec442f0560e01b8152600060048201526024015b60405180910390fd5b6200014e6000838362000152565b5050565b6001600160a01b03831662000181578060056000828254620001759190620005ba565b90915550620001f59050565b6001600160a01b03831660009081526003602052604090205481811015620001d65760405163391434e360e21b81526001600160a01b0385166004820152602481018290526044810183905260640162000137565b6001600160a01b03841660009081526003602052604090209082900390555b6001600160a01b038216620002135760058054829003905562000232565b6001600160a01b03821660009081526003602052604090208054820190555b816001600160a01b0316836001600160a01b03167fddf252ad1be2c89b69c2b068fc378daa952ba7f163c4a11628f55a4df523b3ef836040516200027891815260200190565b60405180910390a3505050565b634e487b7160e01b600052604160045260246000fd5b600082601f830112620002ad57600080fd5b81516001600160401b0380821115620002ca57620002ca62000285565b604051601f8301601f19908116603f01168101908282118183101715620002f557620002f562000285565b816040528381526020925086838588010111156200031257600080fd5b600091505b8382101562000336578582018301518183018401529082019062000317565b600093810190920192909252949350505050565b805160ff811681146200035c57600080fd5b919050565b80516001600160a01b03811681146200035c57600080fd5b600080600080600080600080610100898b0312156200039757600080fd5b88516001600160401b0380821115620003af57600080fd5b620003bd8c838d016200029b565b995060208b0151915080821115620003d457600080fd5b620003e28c838d016200029b565b985060408b0151915080821115620003f957600080fd5b50620004088b828c016200029b565b9650506200041960608a016200034a565b9450608089015193506200043060a08a0162000361565b92506200044060c08a0162000361565b91506200045060e08a0162000361565b90509295985092959890939650565b600181811c908216806200047457607f821691505b6020821081036200049557634e487b7160e01b600052602260045260246000fd5b50919050565b601f821115620004e957600081815260208120601f850160051c81016020861015620004c45750805b601f850160051c820191505b81811015620004e557828155600101620004d0565b5050505b505050565b81516001600160401b038111156200050a576200050a62000285565b62000522816200051b84546200045f565b846200049b565b602080601f8311600181146200055a5760008415620005415750858301515b600019600386901b1c1916600185901b178555620004e5565b600085815260208120601f198616915b828110156200058b578886015182559484019460019091019084016200056a565b5085821015620005aa5787850151600019600388901b60f8161c191681555b5050505050600190811b01905550565b80820180821115620005dc57634e487b7160e01b600052601160045260246000fd5b92915050565b60805161151d6200060c6000396000818161024c015281816102e80152610be0015261151d6000f3fe608060405234801561001057600080fd5b50600436106101585760003560e01c806370a08231116100c357806395d89b411161007c57806395d89b4114610341578063a9059cbb14610349578063ac9650d81461035c578063bf7e214f1461037c578063dd62ed3e1461038d578063ed60c0fc146103c657600080fd5b806370a082311461028f5780637284e416146102b857806379cc6790146102c05780637a9e5e4b146102d35780637da0a877146102e65780638fb360371461032057600080fd5b80632f54bf6e116101155780632f54bf6e146101e2578063313ce567146101f557806340c10f191461021457806342966c6814610227578063572b6c051461023c5780637065cb481461027c57600080fd5b806306fdde031461015d578063095ea7b31461017b5780630db026221461019e578063173825d9146101b457806318160ddd146101c757806323b872dd146101cf575b600080fd5b6101656103db565b60405161017291906110cc565b60405180910390f35b61018e6101893660046110f6565b61046d565b6040519015158152602001610172565b6101a6610491565b604051908152602001610172565b61018e6101c2366004611120565b6104a2565b6005546101a6565b61018e6101dd36600461113b565b61051b565b61018e6101f0366004611120565b61054b565b600854600160a81b900460ff1660405160ff9091168152602001610172565b6101a66102223660046110f6565b610558565b61023a610235366004611177565b61056a565b005b61018e61024a366004611120565b7f00000000000000000000000000000000000000000000000000000000000000006001600160a01b0390811691161490565b61018e61028a366004611120565b61057e565b6101a661029d366004611120565b6001600160a01b031660009081526003602052604090205490565b6101656105b5565b61023a6102ce3660046110f6565b610643565b61023a6102e1366004611120565b610663565b7f00000000000000000000000000000000000000000000000000000000000000005b6040516001600160a01b039091168152602001610172565b6103286106fb565b6040516001600160e01b03199091168152602001610172565b610165610721565b61018e6103573660046110f6565b610730565b61036f61036a366004611190565b610748565b6040516101729190611205565b6008546001600160a01b0316610308565b6101a661039b366004611267565b6001600160a01b03918216600090815260046020908152604080832093909416825291909152205490565b6103ce6108b2565b604051610172919061129a565b6060600680546103ea906112e7565b80601f0160208091040260200160405190810160405280929190818152602001828054610416906112e7565b80156104635780601f1061043857610100808354040283529160200191610463565b820191906000526020600020905b81548152906001019060200180831161044657829003601f168201915b5050505050905090565b6000806104786108be565b90506104858185856108c8565b60019150505b92915050565b600061049d60016108da565b905090565b60006104af6001336108e4565b6104d45760405162461bcd60e51b81526004016104cb9061131b565b60405180910390fd5b6104df600183610906565b6040519091506001600160a01b038316907f58619076adf5bb0943d100ef88d52d7c3fd691b19d3a9071b555b651fbf418da90600090a2919050565b6000806105266108be565b905061053385828561091b565b61053e858585610999565b60019150505b9392505050565b600061048b6001836108e4565b600061056483836109f8565b50919050565b61057b6105756108be565b82610a2e565b50565b600061058b6001336108e4565b6105a75760405162461bcd60e51b81526004016104cb9061131b565b61048b82610a64565b919050565b600980546105c2906112e7565b80601f01602080910402602001604051908101604052809291908181526020018280546105ee906112e7565b801561063b5780601f106106105761010080835404028352916020019161063b565b820191906000526020600020905b81548152906001019060200180831161061e57829003601f168201915b505050505081565b6106558261064f6108be565b8361091b565b61065f8282610a2e565b5050565b600061066d6108be565b90506106816008546001600160a01b031690565b6001600160a01b0316816001600160a01b0316146106bc5760405162d1953b60e31b81526001600160a01b03821660048201526024016104cb565b816001600160a01b03163b6000036106f2576040516361798f2f60e11b81526001600160a01b03831660048201526024016104cb565b61065f82610af9565b600854600090600160a01b900460ff166107155750600090565b50638fb3603760e01b90565b6060600780546103ea906112e7565b60008061073b6108be565b9050610485818585610999565b606060006107546108be565b6001600160a01b0316336001600160a01b0316146107bf5760003661077a601482611378565b61078592829061138b565b8080601f0160208091040260200160405190810160405280939291908181526020018383808284376000920191909152506107cf92505050565b6040805160008152602081019091525b90508267ffffffffffffffff8111156107ea576107ea6113b5565b60405190808252806020026020018201604052801561081d57816020015b60608152602001906001900390816108085790505b50915060005b838110156108aa5761087a30868684818110610841576108416113cb565b905060200281019061085391906113e1565b856040516020016108669392919061142f565b604051602081830303815290604052610b4d565b83828151811061088c5761088c6113cb565b602002602001018190525080806108a290611456565b915050610823565b505092915050565b606061049d6001610bc3565b600061049d610bd0565b6108d58383836001610c45565b505050565b600061048b825490565b6001600160a01b03811660009081526001830160205260408120541515610544565b6000610544836001600160a01b038416610d1a565b6001600160a01b038381166000908152600460209081526040808320938616835292905220546000198114610993578181101561098457604051637dc7a0d960e11b81526001600160a01b038416600482015260248101829052604481018390526064016104cb565b61099384848484036000610c45565b50505050565b6001600160a01b0383166109c357604051634b637e8f60e11b8152600060048201526024016104cb565b6001600160a01b0382166109ed5760405163ec442f0560e01b8152600060048201526024016104cb565b6108d5838383610e0d565b6001600160a01b038216610a225760405163ec442f0560e01b8152600060048201526024016104cb565b61065f60008383610e0d565b6001600160a01b038216610a5857604051634b637e8f60e11b8152600060048201526024016104cb565b61065f82600083610e0d565b60008054610a7260016108da565b1115610ab25760405162461bcd60e51b815260206004820152600f60248201526e1bdddb995c9cc8195e18d959591959608a1b60448201526064016104cb565b610abd600183610f37565b6040519091506001600160a01b038316907f994a936646fe87ffe4f1e469d3d6aa417d6b855598397f323de5b449f765f0c390600090a2919050565b600880546001600160a01b0319166001600160a01b0383169081179091556040519081527f2f658b440c35314f52658ea8a740e05b284cdc84dc9ae01e891f21b8933e7cad9060200160405180910390a150565b6060600080846001600160a01b031684604051610b6a919061146f565b600060405180830381855af49150503d8060008114610ba5576040519150601f19603f3d011682016040523d82523d6000602084013e610baa565b606091505b5091509150610bba858383610f4c565b95945050505050565b6060600061054483610fa8565b6000366014336001600160a01b037f000000000000000000000000000000000000000000000000000000000000000016148015610c0d5750808210155b15610c3d57600036610c1f8385611378565b610c2a92829061138b565b610c339161148b565b60601c9250505090565b339250505090565b6001600160a01b038416610c6f5760405163e602df0560e01b8152600060048201526024016104cb565b6001600160a01b038316610c9957604051634a1406b160e11b8152600060048201526024016104cb565b6001600160a01b038085166000908152600460209081526040808320938716835292905220829055801561099357826001600160a01b0316846001600160a01b03167f8c5be1e5ebec7d5bd14f71427d1e84f3dd0314c0f7b2291e5b200ac8c7c3b92584604051610d0c91815260200190565b60405180910390a350505050565b60008181526001830160205260408120548015610e03576000610d3e600183611378565b8554909150600090610d5290600190611378565b9050808214610db7576000866000018281548110610d7257610d726113cb565b9060005260206000200154905080876000018481548110610d9557610d956113cb565b6000918252602080832090910192909255918252600188019052604090208390555b8554869080610dc857610dc86114be565b60019003818190600052602060002001600090559055856001016000868152602001908152602001600020600090556001935050505061048b565b600091505061048b565b6001600160a01b038316610e38578060056000828254610e2d91906114d4565b90915550610eaa9050565b6001600160a01b03831660009081526003602052604090205481811015610e8b5760405163391434e360e21b81526001600160a01b038516600482015260248101829052604481018390526064016104cb565b6001600160a01b03841660009081526003602052604090209082900390555b6001600160a01b038216610ec657600580548290039055610ee5565b6001600160a01b03821660009081526003602052604090208054820190555b816001600160a01b0316836001600160a01b03167fddf252ad1be2c89b69c2b068fc378daa952ba7f163c4a11628f55a4df523b3ef83604051610f2a91815260200190565b60405180910390a3505050565b6000610544836001600160a01b038416611004565b606082610f6157610f5c82611053565b610544565b8151158015610f7857506001600160a01b0384163b155b15610fa157604051639996b31560e01b81526001600160a01b03851660048201526024016104cb565b5080610544565b606081600001805480602002602001604051908101604052809291908181526020018280548015610ff857602002820191906000526020600020905b815481526020019060010190808311610fe4575b50505050509050919050565b600081815260018301602052604081205461104b5750815460018181018455600084815260208082209093018490558454848252828601909352604090209190915561048b565b50600061048b565b8051156110635780518082602001fd5b604051630a12f52160e11b815260040160405180910390fd5b60005b8381101561109757818101518382015260200161107f565b50506000910152565b600081518084526110b881602086016020860161107c565b601f01601f19169290920160200192915050565b60208152600061054460208301846110a0565b80356001600160a01b03811681146105b057600080fd5b6000806040838503121561110957600080fd5b611112836110df565b946020939093013593505050565b60006020828403121561113257600080fd5b610544826110df565b60008060006060848603121561115057600080fd5b611159846110df565b9250611167602085016110df565b9150604084013590509250925092565b60006020828403121561118957600080fd5b5035919050565b600080602083850312156111a357600080fd5b823567ffffffffffffffff808211156111bb57600080fd5b818501915085601f8301126111cf57600080fd5b8135818111156111de57600080fd5b8660208260051b85010111156111f357600080fd5b60209290920196919550909350505050565b6000602080830181845280855180835260408601915060408160051b870101925083870160005b8281101561125a57603f198886030184526112488583516110a0565b9450928501929085019060010161122c565b5092979650505050505050565b6000806040838503121561127a57600080fd5b611283836110df565b9150611291602084016110df565b90509250929050565b6020808252825182820181905260009190848201906040850190845b818110156112db5783516001600160a01b0316835292840192918401916001016112b6565b50909695505050505050565b600181811c908216806112fb57607f821691505b60208210810361056457634e487b7160e01b600052602260045260246000fd5b60208082526027908201527f4f6e6c79206f776e65722063616e20657865637574652074686973207472616e60408201526639b0b1ba34b7b760c91b606082015260800190565b634e487b7160e01b600052601160045260246000fd5b8181038181111561048b5761048b611362565b6000808585111561139b57600080fd5b838611156113a857600080fd5b5050820193919092039150565b634e487b7160e01b600052604160045260246000fd5b634e487b7160e01b600052603260045260246000fd5b6000808335601e198436030181126113f857600080fd5b83018035915067ffffffffffffffff82111561141357600080fd5b60200191503681900382131561142857600080fd5b9250929050565b82848237600083820160008152835161144c81836020880161107c565b0195945050505050565b60006001820161146857611468611362565b5060010190565b6000825161148181846020870161107c565b9190910192915050565b6bffffffffffffffffffffffff1981358181169160148510156108aa5760149490940360031b84901b1690921692915050565b634e487b7160e01b600052603160045260246000fd5b8082018082111561048b5761048b61136256fea2646970667358221220cce89698d8422d2f810861d8cb3f6c544e107d2574e67b30b9d6c06364a4395164736f6c63430008140033",
  "linkReferences": {},
  "deployedLinkReferences": {}
}